:020000040000FA
:10000000F8040020E1020000E9020000EB02000019
:10001000ED020000EF020000F1020000000000000D
:10002000000000000000000000000000F3020000DB
:10003000F502000000000000F7020000D52A0000D1
:10004000FB020000FD020000FF02000001030000AF
:1000500003030000793400000703000009030000D7
:100060000B0300000D0300000F030000110300004C
:10007000130300001503000017030000190300001C
:100080001B0300001D0300001F0300009D2C000047
:1000900023030000250300002703000029030000BC
:1000A0002B0300002D0300002F030000310300008C
:1000B000330300003503000037030000390300005C
:1000C0003B0300003D0300003F030000410300002C
:1000D00043030000450300004703000049030000FC
:1000E0004B0300004D0300004F03000051030000CC
:1000F000530300005503000057030000590300009C
:100100005B0300005D0300005F030000610300006B
:10011000630300006503000067030000690300003B
:100120006B0300006D0300006F030000710300000B
:1001300073030000750300007703000079030000DB
:100140007B0300007D0300007F0300009903000093
:1001500000000000000000009B0300009D03000061
:100160009F030000A103000000000000A3030000A3
:10017000A5030000A7030000A9030000AB030000D3
:10018000AD030000AF030000B1030000B3030000A3
:10019000B5030000B7030000B9030000BB03000073
:1001A000BD030000BF030000C1030000C303000043
:1001B000C5030000C7030000C9030000CB03000013
:1001C000CD030000CF030000D1030000D3030000E3
:1001D000D5030000D7030000D9030000DB030000B3
:1001E000DD030000DF030000E1030000E303000083
:1001F000E5030000E7030000E9030000EB03000053
:1002000000F002F800F045F80AA090E8000C8244E3
:100210008344AAF10107DA4501D100F03AF8AFF2C0
:10022000090EBAE80F0013F0010F18BFFB1A43F0D4
:10023000010318476C5E00008C5E0000103A24BF7A
:1002400078C878C1FAD8520724BF30C830C144BF3B
:1002500004680C607047000000230024002500267D
:10026000103A28BF78C1FBD8520728BF30C148BF19
:100270000B6070471FB505F065FB00F039F904000D
:100280000020002104F0B2FD401C60601FBD10B5CD
:1002900010BD00F039F91146FFF7ECFF04F02CFC1B
:1002A00000F057F903B4FFF7F2FF03BC00F09AF92E
:1002B0000138FDD170470000EFF3108072B670472F
:1002C000EFF310807047EFF3108062B6704730BFD5
:1002D000704780F311887047EFF31180704700007A
:1002E0004548804745480047FEE7FEE7FEE7FEE752
:1002F000FEE7FEE7FEE7FEE7FEE7FEE7FEE7FEE7D6
:10030000FEE7FEE7FEE7FEE7FEE7FEE7FEE7FEE7C5
:10031000FEE7FEE7FEE7FEE7FEE7FEE7FEE7FEE7B5
:10032000FEE7FEE7FEE7FEE7FEE7FEE7FEE7FEE7A5
:10033000FEE7FEE7FEE7FEE7FEE7FEE7FEE7FEE795
:10034000FEE7FEE7FEE7FEE7FEE7FEE7FEE7FEE785
:10035000FEE7FEE7FEE7FEE7FEE7FEE7FEE7FEE775
:10036000FEE7FEE7FEE7FEE7FEE7FEE7FEE7FEE765
:10037000FEE7FEE7FEE7FEE7FEE7FEE7FEE7FEE755
:10038000FEE7FEE7FEE7FEE7FEE7FEE7FEE7FEE745
:10039000FEE7FEE7FEE7FEE7FEE7FEE7FEE7FEE735
:1003A000FEE7FEE7FEE7FEE7FEE7FEE7FEE7FEE725
:1003B000FEE7FEE7FEE7FEE7FEE7FEE7FEE7FEE715
:1003C000FEE7FEE7FEE7FEE7FEE7FEE7FEE7FEE705
:1003D000FEE7FEE7FEE7FEE7FEE7FEE7FEE7FEE7F5
:1003E000FEE7FEE7FEE7FEE7FEE7FEE70448054915
:1003F000034A054B704700007D2C000001020000FD
:10040000F8020020F8040020F802002010B504468D
:1004100000F05AF80068005D000704D5DF2C02D018
:10042000A4F1200010BD204610BD40EA010370B5C4
:100430009B072ED14FF00136042A2AD308C810C9D1
:100440009D1B9D43121F15EAC61517D0D8B2E1B205
:10045000401A50EA056110D198B2A1B2401A50EA90
:1004600005410AD123F07F4024F07F41401A50EA31
:10047000052102D1180EA0EB146070BDA342DBD0A1
:1004800018BA21BA884201D9012070BD4FF0FF305F
:1004900070BD0AB9002070BD10F8013B11F8014B86
:1004A00063B1A3420AD1521E08D010F8013B11F8E3
:1004B000014B1BB1A34201D1521EEDD1181B70BDDF
:1004C000704770477047000010B500F011F8001D2C
:1004D00010BD00BF1949000010B500F00DF800680C
:1004E00010BD10B5044600F007F8046010BD000010
:1004F00000487047B4020020004870479402002072
:1005000000487047940200207546FFF7F9FFAE4699
:1005100005006946534620F00700854618B020B50F
:10052000FFF764FFBDE820404FF000064FF00007E2
:100530004FF000084FF0000B21F00701AC46ACE88B
:10054000C009ACE8C009ACE8C009ACE8C0098D46F8
:10055000704710B50446AFF300802046BDE8104058
:10056000FFF7A0BE4FF0013C50F8042B51F8043BBC
:100570009A4221D1A2EB0C03934313EACC1317D177
:1005800050F8042B51F8043B9A4215D1A2EB0C030E
:10059000934313EACC130BD150F8042B51F8043BCE
:1005A0009A4209D1A2EB0C03934313EACC13DBD09C
:1005B0004FF00000704700BFD01A01BAB1FA81F1C4
:1005C00001F0180122FA01F0CB40C1F12001DBB2A9
:1005D000C0B2C01A2CFA01F3D11A914311EAC31127
:1005E000E6D1704701491820ABBEFEE726000200A5
:1005F0007047000010B5FE48007800287ED0DF224A
:100600000121182001F026FAFA490870FA4800780A
:10061000002874D0F948FA490978425C0521222063
:1006200001F018FAF349087080220621222001F017
:1006300011FAF0490870F348008800F0ADFFEF4868
:10064000F1490978425C0521222001F003FAE949C9
:10065000087040220621222001F0FCF9E5490870CB
:10066000E848008800F098FF40220521222001F090
:10067000F1F9E049087020220621222001F0EAF970
:10068000DC490870DF48008800F086FFDB48DF495E
:100690000978425C0521222001F0DCF9D549087077
:1006A00010220621222001F0D5F9D2490870D54840
:1006B000008800F071FFD148D5490978425C0521D6
:1006C000222001F0C7F9CB49087008220621222018
:1006D00001F0C0F9C7490870CA48008800F05CFF03
:1006E00040220521222001F0B5F9C24908700422F8
:1006F0000621222001F0AEF9BE4901E0E3E02FE03F
:100700000870C048008800F047FFBC48C14909781C
:10071000425C0521222001F09DF9B64908700222B1
:100720000621222001F096F9B2490870B5480088E8
:1007300000F032FFB148B8490978425C0521222017
:1007400001F088F9AB49087001220621222001F04E
:1007500081F9A8490870AB48008800F01DFF2FE21E
:10076000AE48007860B100220521222001F072F924
:10077000A0490870A3490988C80000F00DFF1FE2D6
:100780009E489F490978425C0521222001F062F9C8
:100790009849087080220621222001F05BF99549D2
:1007A00008709848008800F0F7FE94489649097848
:1007B000425C0521222001F04DF98E49087040224B
:1007C0000621222001F046F98A4908708D480088E8
:1007D00000F0E2FE40220521222001F03BF985498C
:1007E000087020220621222001F034F98149087086
:1007F0008448008800F0D0FE804884490978425C33
:100800000521222001F026F97A49087010220621DC
:10081000222001F01FF9774908707A48008800F01B
:10082000BBFE76487A490978425C0521222001F016
:1008300011F97049087008220621222001F00AF9F6
:100840006C4908706F48008800F0A6FE4022052120
:10085000222001F0FFF867490870042206212220B7
:1008600001F0F8F8634908706648008800F094FECB
:10087000624868490978425C0521222001F0EAF8C3
:100880005C49087002220621222001F0E3F8594950
:1008900008705C48008800F07FFE58485E4909787F
:1008A000425C0521222001F0D5F85249087001224E
:1008B0000621222001F0CEF84E49087051480088E8
:1008C00000F06AFE7CE1FB220121182001F0C2F851
:1008D000484908704848007800287DD05048484969
:1008E0000978425C0521222001F0B4F841490870E2
:1008F00001220621222001F0ADF83E49087041484E
:10090000008800F049FE46483F490978425C0521CD
:10091000222001F09FF83749087002220621222088
:1009200001F098F8334908703648008800F034FE2A
:1009300040220521222001F08DF82E490870042262
:100940000621222001F086F82A4908702D480088E7
:1009500000F022FE32482D490978425C0521222010
:1009600001F078F82349087008220621222001F0BE
:1009700071F8204908702348008800F00DFE2848CF
:1009800023490978425C0521222001F063F81949C6
:10099000087010220621222001F05CF81549087029
:1009A0001848008800F0F8FD40220521222001F0BF
:1009B00051F81049087020220621222001F04AF83F
:1009C0000C4908700F48008800F0E6FD14481149F2
:1009D0000978425C052100E040E0222001F03AF86D
:1009E0000449087040220621222001F033F819E062
:1009F00043000020000000205400002028000020B8
:100A000086000020020000208700002088000020CF
:100A1000890000208A0000208B0000204500002073
:100A200017000020674908706748008800F0B4FD8F
:100A3000664867490978425C0521222001F00AF8DE
:100A40006049087080220621222001F003F85D49E8
:100A500008705D48008800F09FFDB1E05D480078B7
:100A600060B100220521222000F0F4FF55490870F2
:100A700055490988C80000F08FFDA1E05348564948
:100A80000978425C0521222000F0E4FF4D490870FE
:100A900001220621222000F0DDFF4A4908704A4861
:100AA000008800F079FD49484C490978425C0521ED
:100AB000222000F0CFFF43490870022206212220A5
:100AC00000F0C8FF3F4908703F48008800F064FD0F
:100AD00040220521222000F0BDFF3A49087004227F
:100AE0000621222000F0B6FF3649087036480088FB
:100AF00000F052FD35483A490978425C0521222030
:100B000000F0A8FF2F49087008220621222000F0DB
:100B1000A1FF2C4908702C48008800F03DFD2B48AF
:100B200030490978425C0521222000F093FF2549D5
:100B3000087010220621222000F08CFF2149087045
:100B40002148008800F028FD40220521222000F0E5
:100B500081FF1C49087020220621222000F07AFF24
:100B6000184908701848008800F016FD17481E49FB
:100B70000978425C0521222000F06CFF11490870C1
:100B800040220621222000F065FF0E4908700E4821
:100B9000008800F001FD0D480D490978425C0521EF
:100BA000222000F057FF07490870802206212220EA
:100BB00000F050FF034908700348008800F0ECFC87
:100BC00010BD0000000000200200002017000020DF
:100BD0008B000020450000208600002087000020B8
:100BE00088000020890000208A00002010B508201D
:100BF000974908709748007890B19748007838B1C5
:100C0000FF220121182000F025FF9449087019E007
:100C1000DF220121182000F01DFF9049087011E02B
:100C20008D48007838B1FF220121182000F012FF12
:100C30008A49087006E0FB220121182000F00AFF13
:100C40008649087086480078A8B1864800788649A9
:100C5000086086480078486085480078C860854804
:100C60000078086184480078886184480078C86109
:100C700000207B49087001F07DF87B48006802285D
:100C800006DD79484068032802D0022076490860D2
:100C900075484068092806DD002073494860084609
:100CA0000068401C086070480068022807D16E4840
:100CB0004068032803DD00206B49086048606A48EB
:100CC000C068052802DD00206749C86066480069E1
:100CD000092806DD6448C068401C6349C8600020DC
:100CE000086161488069052802DD00205E4988614D
:100CF0005D48C069092806DD5B488069401C5A4987
:100D000088610020C86158480068002805DA564804
:100D1000406810B1002054490860534840680028DA
:100D200006DA09205049486008460068401E0860FD
:100D30004D48006840B94C484068002804DA022059
:100D400049490860032048604748C068002802DA23
:100D500005204549C86044480069002806DA424831
:100D6000C068401E4049C860092008613E4880694B
:100D7000002802DA05203C4988613B48C069002808
:100D800006DA39488069401E374988610920C86100
:100D90003B480078D8B3344800783A490870324864
:100DA0000079394908703048007B384908702E486E
:100DB000007C374908702C48007E364908702A4864
:100DC000007F354908700020344908702D480078AC
:100DD00000EB80002C49097801EB40003049087095
:100DE0002A48007800EB80002949097801EB40008F
:100DF0002C4908702748007800EB800026490978C4
:100E000001EB400028490870012028490870284853
:100E10000078E0B1144800781A4908701248007947
:100E2000194908701048007B184908700E48007C6A
:100E3000174908700C48007E164908700A48007F60
:100E4000154908700020154908701849087010BD30
:100E50004600002043000020450000200000002044
:100E60004B0000207B000020F40000207C000020CC
:100E70007E0000207F0000208100002082000020F2
:100E80004C00002086000020870000208800002001
:100E9000890000208A0000208B0000204A000020EA
:100EA00083000020840000208500002054000020E2
:100EB0004D00002070B52DED068B002444E029493B
:100EC0000D78E91705EB5171C910A5EBC101481C5C
:100ED00004F0EFF941EC1A0BB0EE4A1AF0EE6A1A80
:100EE0009FED210B02F004FFB0EE409AF0EE609A05
:100EF0009FED1F0B53EC102B51EC190B04F060FB12
:100F000041EC180B04F0A8F9C6B2324601211820B2
:100F100000F0A0FD184908701848005D18490A5CE7
:100F20000521222000F096FD134908700120A04001
:100F3000C2B20621222000F08DFD0F490870114831
:100F4000008800F029FB641C06490878C11700EBF3
:100F50005171C910A0EBC101491CA142AFDCBDEC2D
:100F6000068B70BD680000200000000000000040FB
:100F70000000000000007040000000200E00002073
:100F8000170000200200002010B5AD4800780028AE
:100F90007DD0BF220121182000F05CFDA949087016
:100FA000A948AA490978425C0521222000F052FD97
:100FB000A449087080220621222000F04BFDA1499F
:100FC0000870A348008800F0E7FA9F48A149097813
:100FD000425C0521222000F03DFD9A490870402224
:100FE0000621222000F036FD9649087098480088B6
:100FF00000F0D2FA40220521222000F02BFD914979
:10100000087020220621222000F024FD8D4908705E
:101010008F48008800F0C0FA8B488F490978425CFD
:101020000521222000F016FD8649087010220621B5
:10103000222000F00FFD834908708548008800F0E9
:10104000ABFA814885490978425C0521222000F0ED
:1010500001FD7C49087008220621222000F0FAFCDC
:10106000784908707A48008800F096FA40220521F5
:10107000222000F0EFFC7349087004220621222090
:1010800000F0E8FC6F4908707148008800E02CE02F
:1010900000F082FA6C4872490978425C05212220EE
:1010A00000F0D8FC6749087002220621222000F0D7
:1010B000D1FC644908706648008800F06DFA624807
:1010C00068490978425C0521222000F0C3FC5D4993
:1010D000087001220621222000F0BCFC594908704A
:1010E0005B48008800F058FAA8E0FD220121182092
:1010F00000F0B0FC534908705B4854490978425CE1
:101100000521222000F0A6FC4E490870012206218C
:10111000222000F09FFC4B4908704D48008800F0E9
:101120003BFA51484B490978425C0521222000F0E6
:1011300091FC4449087002220621222000F08AFC1A
:10114000404908704248008800F026FA40220521F4
:10115000222000F07FFC3B49087004220621222057
:1011600000F078FC374908703948008800F014FA1C
:101170003D4839490978425C0521222000F06AFC8B
:101180003049087008220621222000F063FC2D4916
:1011900008702F48008800F0FFF933482F4909787C
:1011A000425C0521222000F055FC264908701022DF
:1011B0000621222000F04EFC2249087024480088B5
:1011C00000F0EAF940220521222000F043FC1D49ED
:1011D000087020220621222000F03CFC19490870EA
:1011E0001B48008800F0D8F91F481D490978425C67
:1011F0000521222000F02EFC124908704022062111
:10120000222000F027FC0F4908701148008800F0E8
:10121000C3F9154813490978425C0521222000F0E2
:1012200019FC0849087080220621222000F012FCD7
:10123000044908700648008800F0AEF910BD0000AF
:101240004300002000000020280000207200002041
:1012500002000020730000207500002076000020AE
:1012600078000020790000201700002010B5082029
:10127000B8490870B848007890B1B848007838B1DB
:10128000FF220121182000F0E5FBB549087019E0A4
:10129000BF220121182000F0DDFBB149087011E0E8
:1012A000AE48007838B1FF220121182000F0D2FBAF
:1012B000AB49087006E0FD220121182000F0CAFBAE
:1012C000A7490870A7480078A8B1A7480078A7499F
:1012D0000860A74800784860A6480078C860A6481B
:1012E00000780861A54800788861A5480078C86141
:1012F00000209C49087000F03DFD9C4800680928CA
:1013000002DD00209949086098484068092802DDFC
:1013100000209649486095480068002802DA0920B4
:101320009249086091484068002802DA09208F49F4
:1013300048608E48008800EB80004FF4FA6101EBB2
:1013400040008A49898808448E4908808748C068D7
:10135000012802DD00208549C86084480069092809
:1013600006DD8248C068401C8049C86000200861D2
:101370007E48C068012807D17C480069022803DD47
:1013800000207A49C86008617848C068002802DAFD
:1013900001207649C86075480069002806DA73485C
:1013A000C068401E7149C860092008616F48C06864
:1013B00040B96E480069012804DA01206B49C86011
:1013C000022008616948007C6849097B01EB8101C2
:1013D00000EB41006C49087008460078022849D0AB
:1013E00062488069032802DD0020604988615F4807
:1013F000C06909280ADD5D488069032806D05B487A
:101400008069401C594988610020C861574880693B
:10141000032879D15C480078012817D05A48007811
:10142000032813D05848007805280FD05648007874
:1014300007280BD054480078082807D05248007875
:101440000A2803D0504800780C2809D14748C069C1
:10145000012859DD0020454988610120C86153E019
:101460004248C06900284FDD0020404988610120C2
:10147000C86149E044480078022845D13B4880696A
:10148000022802DD0020394988613848C0690928EE
:101490000ADD36488069022806D034488069401C3D
:1014A000324988610020C8613048806902282BD108
:1014B000344909884FF4C87291FBF2F302FB13110F
:1014C00081B130490988642291FBF2F302FB1311C8
:1014D00091B12C490888C11700EB91718910A0EBDC
:1014E000810149B92148C06909280DDD00201F4943
:1014F00088610120C86107E01C48C069082803DD35
:1015000000201A498861C86120480078D0B1174886
:101510000078154908701548007915490870134876
:10152000007B144908701148007C134908700F486B
:10153000007E124908700D48007F11490870002094
:10154000134908701348007810B100201049087042
:1015500010BD000046000020430000204500002090
:10156000000000204B00002072000020F40000204A
:101570007300002075000020760000207800002015
:101580007900002070000020740000204C00002032
:101590004A0000204D000020002100E0491C81424B
:1015A000FCD3704710B50220FEF782FE0C4CA069F8
:1015B00010F0010FFBD1E06910F00C0F0ED10948BB
:1015C00001F03CFA0220FEF773FEA06910F0010F53
:1015D000FBD1E06910F00C0008BF10BD022010BD67
:1015E00000F00A40005800F02DE9F05FDFF8488174
:1015F0000646D8F8180010F0010FFAD18809C8F88B
:101600000400C1F38300C8F80800DFF83091DFF868
:1016100030A195084FF0000B67D0C809012101FAED
:1016200000F0C743DAF8001046480140A1F18050AD
:10163000B0F5A02002BFDAF8000080B2002813D174
:101640000A20FEF735FE0320C9F8FC000A20FEF749
:101650002FFE3D48C0F8C0720A20FEF729FEC9F8E7
:10166000FCB00A20FEF724FE3068C8F814000A20F7
:10167000FEF71EFED8F8184014F0010FFAD114F04E
:10168000100F24D0DAF800102E480140A1F180504C
:10169000B0F5A02002BFDAF8000080B2002813D114
:1016A0000A20FEF705FE0320C9F8FC000A20FEF719
:1016B000FFFD2548C0F8C0B20A20FEF7F9FDC9F8C1
:1016C000FCB00A20FEF7F4FD2046BDE8F09F6D1E39
:1016D00006F1040609D0D8F808000028A2D1D8F8ED
:1016E0000400401CC8F804009CE7DAF80010154814
:1016F0000140A1F18050B0F5A02002BFDAF800004F
:1017000080B2002813D10A20FEF7D2FD0320C9F8C9
:10171000FC000A20FEF7CCFD0B48C0F8C0B20A203E
:10172000FEF7C6FDC9F8FCB00A20FEF7C1FDD8F8E7
:101730001800BDE8F09F000000F00A4000D00F4004
:1017400000E00F400000FF7000E00A400B4B4FEA42
:10175000911CC3F804C0C1F383019960910808BFCC
:1017600070475A6940F8042B491E08BF70479A68B1
:10177000002AF6D15A68521C5A60F2E700F00A407B
:10178000D0F8003412F0010F14BF0B438B43C0F8A4
:10179000003412F0020FD0F8202414BF114322EAC3
:1017A0000101C0F8201470472DE9F00301264FF025
:1017B000000C0325C2F3411706FA0CF40C4211D0B9
:1017C000D0F8C48F4FEA4C0405FA04F928EA090856
:1017D000C0F8C48FD0F8C48F07FA04F448EA0404B0
:1017E000C0F8C44F0CF1010C0CF0FF0CBCF1080F59
:1017F000E2D3D0F800C512F0010F14BF4CEA010C7F
:101800002CEA010CC0F800C5D0F804C512F0020F94
:1018100014BF4CEA010C2CEA010CC0F804C5D0F846
:1018200008C512F0040F14BF4CEA010C2CEA010C9D
:10183000C0F808C5D0F818C512F0080F14BF4CEA5C
:10184000010C2CEA010CC0F818C512F0100FD0F8EA
:101850003C2514BF0A438A43C0F83C25D0F80C2528
:1018600013F0010F14BF0A438A43C0F80C25D0F8C7
:10187000102513F0020F14BF0A438A43C0F8102545
:10188000D0F8142513F0040F14BF0A438A43C0F89C
:101890001425D0F81C2513F0080F14BF0A438A43FF
:1018A000C0F81C25D0F8442513F4007F14BF0A4368
:1018B0008A43C0F84425D0F8402513F4407F14BF74
:1018C0000A438A43C0F84025D0F82825002B0CBFD6
:1018D000114322EA0101C0F82815BDE8F003704762
:1018E0000E4AC0F30741D26E01238B401A420C4AC4
:1018F0001ABF02EBC101496852F83110020AD1F84F
:101900002C354FF00F0C0CFA02FC00F00F0023EA0C
:101910000C0390401843C1F82C05704700E00F40BD
:10192000D85B000050F82100704730B50C460546E2
:101930000022FFF725FF21462846BDE83040082356
:101940000122FFF731BF30B50C46054608230122BE
:10195000FFF72AFF21462846BDE830400122FFF765
:101960000FBF30B50C4605460222FFF709FF21469E
:101970002846BDE8304009230122FFF715BF30B5E6
:101980000C4605460222FFF7FBFE21462846BDE82D
:10199000304008230122FFF707BF30B50C4605464B
:1019A0000222FFF7EDFE21462846BDE8304008231D
:1019B0000122FFF7F9BE30B50C4605460222FFF7BB
:1019C000DFFE21462846BDE8304008230122FFF70C
:1019D000EBBE00002DE9F04104460E4600BF1C4856
:1019E00000F078F80028FAD100222146184800F0CB
:1019F000B9F83146164800F077F80721144800F08E
:101A00006FF800BF124800F05FF80028FAD11048C4
:101A100000F071F8C7B2C820FFF7BEFD01222146D1
:101A20000B4800F09FF80721094800F059F800BF63
:101A3000074800F049F80028FAD1054800F052F8AC
:101A4000C5B2C820FFF7A8FD2846BDE8F081000018
:101A5000000002402DE9F04104460F46154600BF44
:101A6000184800F037F80028FAD10022214615481E
:101A700000F078F83946134800F036F80321114891
:101A800000F02EF800BF0F4800F024F80028FAD12B
:101A90000C4800F030F8C6B229460A4800F024F895
:101AA0000521084800F01CF800BF064800F012F8B5
:101AB0000028FAD1034800F01EF8C6B23046BDE84F
:101AC000F081000000000240406810F0400018BFA4
:101AD00001207047406810F0010018BF01207047D6
:101AE000416070478068704781607047016A41F0CB
:101AF000100101627047406810F0010F05D110F02D
:101B0000120F1CBF00F01C0070470020704700003F
:101B1000036A43F010030362002A14BF0E4A0F4AFF
:101B200002EB820301EB830302EB820292005B1E55
:101B3000B3FBF2F2521EC260D0F8C02F12F0010FB8
:101B400008BF7047064A1144521CB1FBF2F1491E0E
:101B500041F08001C1607047801A0600A086010034
:101B60007F47370142EA4101016070471649042866
:101B700004BF086840F4803018D0052804BF086806
:101B800040F4003012D0062812D00F2815D01028AB
:101B900038BF7047103800F01F01012202FA01F12E
:101BA00042090A4850F822000160704708607047F7
:101BB000086840F48020086070474FF0E020016919
:101BC00041F002010161704724ED00E0245D000056
:101BD00010B5FEF778FB002818BF012010BD0000EB
:101BE00070B500212220FFF7F5FEC0433849087088
:101BF000084600783749097848403749087037481F
:101C0000007837490978884209D13448007830B9DA
:101C100001203449087000203349087014E033482B
:101C2000007833490978884209D13048007830B9C2
:101C300000202C49087001202B49087004E0002086
:101C4000284908702849087023480078002832D0B5
:101C50001F48007878B3032413E00120A0401E49F8
:101C60000978084060B10120A0401949097808406E
:101C700018B1601C1F49087002E001201D4908705E
:101C8000641E002CE9DA042513E00120A840124963
:101C90000978084060B10120A8400D490978084042
:101CA00018B1681C1449087002E00020124908703D
:101CB0006D1C082DE9DB06480078064908700748C6
:101CC000007807490870094800780949087070BD14
:101CD000A5000020A8000020A4000020A6000020ED
:101CE000A90000204C0000204D000020A70000208B
:101CF000AA000020E4000020E5000020D0F8C82F52
:101D000022F0070222F480721143C0F8C81F704706
:101D1000084401686FF352011143016012F0020F91
:101D200014BFB0218C21016214BF4FF4306140F622
:101D30000C0141627047425842F001024250704724
:101D40000844016811F0020F14BF5108511E0161CF
:101D5000704721F03F031844036813F0020F18BFC7
:101D6000520803699A1A11F0010F14BFC26182610F
:101D70007047000010B578480078082823D17748CC
:101D8000C07900B37648C079E8B176480078002879
:101D900013DD74480078032803D0724800780628C1
:101DA00005D170480078801E6E49087008E06D48C3
:101DB0000078401E6B49087002E0072069490870EE
:101DC00000206649C87164480078072823D1634819
:101DD000807900B362488079E8B1624800780728CA
:101DE00013DA60480078012803D05E4800780428A0
:101DF00005D15C480078801C5A49087008E05948B1
:101E00000078401C5749087002E0002055490870CE
:101E100000205249887150480078062813D14F4855
:101E2000407980B14E48407968B14F484D490978B2
:101E300050F82100401E4C494A4A127841F82200CD
:101E400000204649487144480078052813D143488A
:101E5000007980B14248007968B143484149097826
:101E600050F82100401C40493E4A127841F82200B7
:101E700000203A490871002469E03A480078844219
:101E800017D13A480078A0B1002205212220FFF79F
:101E9000E1FD374908700120A040C2B2062122208E
:101EA000FFF7D8FD3249087032480088FFF774FB0D
:101EB0004CE0022C01D0052C14D140220521222017
:101EC000FFF7C8FD2A4908700120A040C2B20621D0
:101ED0002220FFF7BFFD2649087026480088FFF73B
:101EE0005BFB33E024480078C0B11F4850F8240061
:101EF00022490A5C05212220FFF7ACFD1C4908702D
:101F00000120A040C2B206212220FFF7A3FD1849FC
:101F1000087018480088FFF73FFB17E0124850F898
:101F2000240017490A5C05212220FFF793FD104980
:101F300008700120A040C2B206212220FFF78AFDCE
:101F40000B4908700B480088FFF726FB641C0D48FE
:101F50000078844291DB10BDE5000020CC00002019
:101F6000DC00002044000020F40000204500002098
:101F70000000002002000020430000202800002074
:101F8000170000204600002010B59D48007800286A
:101F90007ED0EF2201211820FFF75CFD99490870DF
:101FA00099489A490968425C05212220FFF752FDB1
:101FB00094490870402206212220FFF74BFD9149E9
:101FC000087093480088FFF7E7FA8F48914909683D
:101FD000425C05212220FFF73DFD8A49087020223E
:101FE00006212220FFF736FD8649087088480088C0
:101FF000FFF7D2FA402205212220FFF72BFD81496D
:102000000870102206212220FFF724FD7D49087068
:102010007F480088FFF7C0FA7B487F490968425C27
:1020200005212220FFF716FD7649087008220621B7
:102030002220FFF70FFD7349087075480088FFF7ED
:10204000ABFA714875490968425C05212220FFF707
:1020500001FD6C490870042206212220FFF7FAFCDA
:10206000684908706A480088FFF796FA66486C4924
:102070000968405C40F0800205212220FFF7EAFC5D
:1020800060490870022206212220FFF7E3FC00E0ED
:102090001BE05C4908705E480088FFF77DFA5A48EB
:1020A00060490968425C05212220FFF7D3FC5549AD
:1020B0000870012206212220FFF7CCFC514908704C
:1020C00053480088FFF768FA98E0F72201211820AA
:1020D000FFF7C0FC4B49087053484C490968425C03
:1020E00005212220FFF7B6FC46490870012206218F
:1020F0002220FFF7AFFC4349087045480088FFF7EE
:102100004BFA494843490968425C05212220FFF700
:10211000A1FC3C490870022206212220FFF79AFC0C
:10212000384908703A480088FFF736FA40220521FE
:102130002220FFF78FFC3349087004220621222059
:10214000FFF788FC2F49087031480088FFF724FA10
:10215000354831490968425C05212220FFF77AFCA5
:1021600028490870082206212220FFF773FC254920
:10217000087027480088FFF70FFA2B48274909689D
:10218000405C40F0800205212220FFF763FC1D49DE
:102190000870102206212220FFF75CFC1949087004
:1021A0001B480088FFF7F8F91F481D490968425C81
:1021B00005212220FFF74EFC12490870202206213B
:1021C0002220FFF747FC0F49087011480088FFF7ED
:1021D000E3F9154813490968425C05212220FFF7FD
:1021E00039FC08490870402206212220FFF732FC02
:1021F0000449087006480088FFF7CEF910BD0000BA
:102200004300002000000020280000208C00002057
:102210000200002090000020940000209800002080
:102220009C000020A00000201700002010B5052011
:10223000504908705048007838B100204F49086074
:102240004860C86008614C4908704D48007890B1FA
:102250004C48007838B1FF2201211820FFF7FAFB23
:102260004949087019E0EF2201211820FFF7F2FB1D
:102270004549087011E04348007838B1FF22012138
:102280001820FFF7E7FB4049087006E0F72201211C
:102290001820FFF7DFFB3C490870FFF76BFD37485C
:1022A0000068092803DD0020344941F82400334840
:1022B0000068002803DA0920304941F824002F483B
:1022C0004068092803DD00202C4941F824002B48F0
:1022D0004068002803DA0920284941F824002748EB
:1022E000C068062803DD0020244941F82400234863
:1022F000C068002803DA0520204941F824001F485F
:102300000069092807DD1D48C068401C1B49C860DA
:10231000002041F8240019480069002807DA17480E
:10232000C068401E1549C860092041F824001748BC
:102330000078A8B111480068154908600F48406846
:10234000144908600D48C068134908600B480069CB
:1023500012490860002012490870012011490870D4
:102360001148007820B100200D4908700D4908700F
:1023700010BD0000460000204B000020F4000020AB
:102380004300002045000020000000204C000020F9
:102390008C00002090000020940000209800002075
:1023A0004A0000204E0000204D00002010B52048BB
:1023B00000F01AFB00BF1E4800F02AFB0028FAD0EC
:1023C000FFF7F0F81B4908600846006808B100BF35
:1023D000FEE71948007819490860194800784860F4
:1023E00018480078886018480078C8601748007856
:1023F00008611748007848611648007888611648D7
:102400000078C8611548007808621548007848626D
:1024100014480078886214480078C8620120086374
:10242000402281020548FFF7DFF800F025FB10BDD0
:10243000005800F05C000020720000201402002010
:102440007300002075000020760000207800002036
:10245000790000207B0000207C0000207E0000200E
:102460007F000020810000208200002010B5144869
:1024700000781449097888420ED11348007813492E
:102480000978884208D112480078124909788842B0
:1024900002D10120104908701048007830B90B486B
:1024A000007809490978401A012802DB00200A490E
:1024B00008700948007810B109A001F06FF810BD4C
:1024C000830000207A000020840000207D0000208E
:1024D00085000020800000204F0000204C000020DC
:1024E0000ACAB1BCE4B5BDC1CBA3A10A000000007B
:1024F00010B51A4800F078FA00BF184800F088FAC2
:102500000028FAD01548C01C00F06EFA00BF13482E
:10251000C01C00F07DFA0028F9D01048001D00F022
:1025200063FA00BF0D48001D00F072FA0028F9D0D0
:1025300021210B48FFF707FA03210A48FFF7F5F9B5
:102540000A23012203210748FFF72EF90648FFF767
:10255000C7F920210548FFF720FA10BD050800F053
:102560000050024000D0034006140900001006404D
:1025700010B51E4800F038FA1D4800F035FA1D4825
:10258000FFF7AEF91C48FFF7ABF904211B48FFF732
:10259000F6F908211948FFF7E4F901221848016803
:1025A0001848FFF7B5FA1748FFF7A0FAFF220C21E9
:1025B0002220FFF74FFA044600220D212220FFF7C8
:1025C00049FA044600220E212220FFF743FA04466E
:1025D000002203211820FFF73DFA0446FF220121C3
:1025E0001820FFF737FA044610BD0000002000F065
:1025F000010800F002080100020C01000050004038
:10260000580000200000024010B5144800F0ECF91A
:1026100000BF124800F0FCF90028FAD00021104851
:10262000FFF76CFB00224FF480710D48FFF770FB41
:102630000C484FF4807102680948FFF781FB094894
:102640000068820840F207110548FFF782FB4FF44B
:1026500080710348FFF76FFB10BD0000004000F0E1
:10266000008002405000002010B50B4800F0BCF97B
:1026700022210A4800F0A4FE094800686421B0FB4A
:10268000F1F42246FF21054800F0DCFEFF2103485B
:1026900000F0C6FE10BD0000000400F00000034082
:1026A0005800002010B5124800F09EF9114800F0C3
:1026B0009BF900BF0F4800F0ABF90028FAD00120C9
:1026C000FFF70EF940F20140FFF70AF903214FF03E
:1026D0004020FFF770F960234FF4E13206480168AB
:1026E000064800F018FF064800F058FF10BD000033
:1026F000001800F0000800F05800002000C0004062
:10270000586000002DE9F003AD4D02462868AD4B3E
:102710001840A0F18053B3F5A02358D002F0380937
:10272000DFF8A482C2F38414B9F1100F24D0B9F1F8
:10273000300F04BF47F230504FF400130CD0382054
:10274000904304BF4FF40040C30105D012F0380F8E
:102750001CBF0020034613D09C4F12F4605F4FF063
:10276000000618BF00222CD057F8324044457DD3D4
:1027700007EBC2025268DFE0002340461524EBE776
:10278000A4F10900122822D29148D5F87CC04FF05C
:102790004C7350F824002CF01C0C072CA8BF4CF0F4
:1027A000100CC5F87CC02E6D4FF4002C16F4807F01
:1027B000D2D1BCF1010C0AD02E6D16F4807FF8D076
:1027C000CAE712F0380F18BFB9F1100F03D0BDE8F7
:1027D000F00300207047C2F30268DFF8F8C100225E
:1027E00057F83290E14503D307EBC202526803E089
:1027F000521C062AF4D33246C5F8C020D5F8B020C2
:10280000DFF8D4C102EA0C0242F00042C5F8B02061
:10281000DFF8C8C1A4F109024C1E5CF828C0A4442A
:10282000BCFBF1FCD5F8B0101943C5F8B01008EBAB
:10283000C80101EB41046A4902EB420201EBC40109
:1028400001EB82046468C5F86441D5F864416FF017
:10285000FF0808EB0C2C44EA0C0CC5F864C151F8D5
:102860002210D5F8602102F4000200E05FE011437D
:10287000C5F86011D5F86011D5F86021C1F3892140
:10288000C2F30904D5F86421C2F3042202F1010C59
:10289000D5F8642102F01F02521CB0FBF2F04A0985
:1028A000C2F100084443424301EB481104EB5212C9
:1028B000484302EB9020B0FBFCF0410808460022A0
:1028C00057F832C0844503D307EBC200466802E0E4
:1028D000521C062AF4D3C5F8C060D5F8600110F484
:1028E000000F1DBFD5F8B00040F08040C5F8B00023
:1028F000D5F8600104BF40F40000C5F860014FF452
:102900000040D5F8682112F0010F02D1401E0028C6
:10291000F7DC002808BF002148D0D5F8B0001843E4
:1029200040F0010040F01040C5F8B0003EE0521CFD
:10293000062AFFF419AF3246C5F8C020D5F8602149
:1029400022F40002C5F86021D5F8B020DFF894C069
:1029500002EA0C0242F00042C5F8B020002908BF8C
:102960004FF0000C0AD0B0FBF1FCBCF1000F18BF17
:10297000ACF1010C0CF10101B0FBF1F108460022B1
:1029800057F83240844203D307EBC200466802E0A6
:10299000521C062AF4D3C5F8C060D5F8B00043EA4B
:1029A0008C22104340F00040C5F8B000D5F8B000CC
:1029B00020F47000C5F8B000BDE8F0030846704789
:1029C00000E00F400000FF700024F400985F00005A
:1029D0007C5D000040787D0100FC0FE0745D00002C
:1029E000E85D0000FF0300EFC0F307230749C0B212
:1029F000194401F07043C1F3130143EA411141EA64
:102A0000800040F0007001220260704700E60F4035
:102A1000C0F307220849C0B2114401F07042C1F36B
:102A2000130142EA411141EA800040F00070006861
:102A3000002818BF0120704700EA0F40C0F30723A9
:102A40000C49C0B2194401F07043C1F3130143EAC9
:102A5000411141EA800040F0007181B001220A601A
:102A6000002200920098401C00901028FAD30A60BF
:102A700001B0704700E50F40024901480860FEE7D9
:102A80000400FA050CED00E04FF0E020016941F090
:102A9000050101617047000010B5074800684FF458
:102AA0007A71B0FBF1F4204600F00FF8FFF7ECFF6D
:102AB00000F004F810BD0000580000204FF0E020A6
:102AC000016941F00201016170474FF0E021401EB1
:102AD0004861704710B556480088401C544908802A
:102AE00008460088B0F57A7F01DB00200880514855
:102AF0000078B0B150480088401C80B24E49088030
:102B0000642807DB4D480078401C4C4908700020C1
:102B10004949088049480078082802D100204549E1
:102B2000087047480088401C80B245490880B0F5CD
:102B3000487F05DB43480078C0F101004149087037
:102B400041480088401C80B23F490880B0F57A7F38
:102B500007DB3E480078401C3C49087000203A4999
:102B600008803A4800780A2807DB39480078401C7A
:102B70003749087000203549087035480078062824
:102B800007DB34480078401C324908700020304987
:102B90000870304800780A2807DB2F480078401C6E
:102BA0002D49087000202B4908702B480078062812
:102BB00007DB2A480078401C284908700020264975
:102BC0000870264800780A2807DB25480078401C52
:102BD000234908700020214908702148007800EB43
:102BE00080001E49097801EB40001E4908701A4810
:102BF000007800EB80001749097801EB40001A4982
:102C000008701348007800EB80001049097801EB48
:102C100040001649087001211548FEF783FE15494A
:102C2000087002211248FEF77DFE1349087010BD9E
:102C3000600000204800002066000020680000209E
:102C40006A000020450000206C0000208200002067
:102C5000810000207F0000207E0000207C000020FA
:102C60007B0000207A0000207D00002080000020F2
:102C700000D00340A6000020A70000200448006800
:102C800040F4700002490860024803490860704738
:102C900088ED00E00024F400F000002070B5012170
:102CA0006F4800F0CAFB054629466D4800F0BFFB9F
:102CB000002464E00120A0406A490978084058B126
:102CC0000120694908556948005D401C674908555D
:102CD00000206749085507E000206349085563490B
:102CE00008550120624908555F48005D70B15F4892
:102CF000005D02280ADD5D48005D322806DA012009
:102D00005C49085500205C49085511E05648005DB3
:102D100070B15648005D64280ADD00205549085509
:102D200001205549085500204F4908554F4908557D
:102D30005148005D70B1042C0CDA50480078C0F1A5
:102D400001004E490870084600784D49087000207F
:102D5000494908554848807920B14748C07908B1A9
:102D6000FFF724FB4448007940B14348407928B13B
:102D700044480078C0F1010042490870641C082CE6
:102D800098DB41480078002868D04048006878B94E
:102D90003F48006860B93F48006848B93E4800684D
:102DA00030B93E48006818B93D480068002855D041
:102DB00036480068401E354908600846006800280B
:102DC00007DA33480068401E3149086009202F495E
:102DD00008602F480068002807DA2E480068401E67
:102DE0002C49086009202A4908602A480068002800
:102DF00007DA29480068401E27490860092025494C
:102E0000086025480068002807DA24480068401E4A
:102E100022490860052020490860204800680028F1
:102E200007DA1F480068401E1D49086009201B4939
:102E300008601648006888B91548006870B91548D8
:102E4000006858B91448006840B91448006828B9A7
:102E50001348006810B900200B49087070BD0000CD
:102E600000000340A5000020BC000020C40000209A
:102E7000DC000020CC000020D40000204A0000200C
:102E80004B000020430000204E000020A000002046
:102E90009C0000209800002094000020900000205A
:102EA0008C00002010B5FE2201211820FEF7D2FD73
:102EB000AD490870AD48007800287DD07F220121FF
:102EC0001820FEF7C7FDA8490870A948A949097844
:102ED000425C05212220FEF7BDFDA3490870802237
:102EE00006212220FEF7B6FD9F490870A2480088FF
:102EF000FEF752FB9E48A1490978425C0521222039
:102F0000FEF7A8FD98490870402206212220FEF70E
:102F1000A1FD9549087098480088FEF73DFB4022C6
:102F200005212220FEF796FD8F49087020220621F8
:102F30002220FEF78FFD8C4908708F480088FEF72D
:102F40002BFB8B488E490978425C05212220FEF735
:102F500081FD85490870102206212220FEF77AFDA6
:102F60008149087084480088FEF716FB804885492F
:102F70000978425C05212220FEF76CFD7A49087031
:102F8000082206212220FEF765FD774908707A485D
:102F90000088FEF701FB402205212220FEF75AFDA2
:102FA00071490870042206212220FEF753FD6E4964
:102FB00008707148008800E02CE0FEF7EDFA6C48DC
:102FC00071490978425C05212220FEF743FD6649DC
:102FD0000870022206212220FEF73CFD624908709B
:102FE00065480088FEF7D8FA614868490978425C6C
:102FF00005212220FEF72EFD5B49087001220621E3
:103000002220FEF727FD584908705B480088FEF72C
:10301000C3FAA8E0FE2201211820FEF71BFD524949
:1030200008705B4853490978425C05212220FEF76D
:1030300011FD4D490870012206212220FEF70AFDEC
:10304000494908704C480088FEF7A6FA50484B4999
:103050000978425C05212220FEF7FCFC42490870F9
:10306000022206212220FEF7F5FC3F490870424863
:103070000088FEF791FA402205212220FEF7EAFCA3
:1030800039490870042206212220FEF7E3FC364964
:10309000087039480088FEF77FFA3D4838490978BA
:1030A000425C05212220FEF7D5FC2F49087008223A
:1030B00006212220FEF7CEFC2B4908702E480088FE
:1030C000FEF76AFA32482F490978425C052122202E
:1030D000FEF7C0FC24490870102206212220FEF7CA
:1030E000B9FC2149087024480088FEF755FA4022AF
:1030F00005212220FEF7AEFC1B4908702022062184
:103100002220FEF7A7FC184908701B480088FEF72C
:1031100043FA1F481C490978425C05212220FEF72A
:1031200099FC11490870402206212220FEF792FCEA
:103130000D49087010480088FEF72EFA144813490C
:103140000978425C05212220FEF784FC06490870BC
:10315000802206212220FEF77DFC034908700648E4
:103160000088FEF719FA10BD00000020430000207F
:10317000280000207B000020020000207C000020AE
:103180007E0000207F0000208100002082000020BF
:103190001700002010B508207A4908707A48007896
:1031A00090B17A48007838B1FF2201211820FEF74B
:1031B00051FC7749087019E07F2201211820FEF7A1
:1031C00049FC7349087011E07048007838B1FF225B
:1031D00001211820FEF73EFC6D49087006E0FE2232
:1031E00001211820FEF736FC69490870694800780B
:1031F000A8B1694800786949086069480078486062
:1032000068480078C86068480078086167480078B6
:10321000886167480078C86100205E490870FEF741
:10322000A9FD5E480068022806DD5C484068032866
:1032300002D002205949086058484068092806DD34
:1032400000205649486008460068401C0860534802
:103250000068022807D151484068032803DD002098
:103260004E49086048604D48C068052802DD0020CE
:103270004A49C86049480069092806DD4748C068CE
:10328000401C4649C8600020086144488069052800
:1032900002DD0020414988614048C069092806DDF7
:1032A0003E488069401C3D4988610020C8613B4818
:1032B0000068002805DA3948406810B10020374915
:1032C000086036484068002806DA0920334948601B
:1032D00008460068401E08603048006840B92F4822
:1032E0004068002804DA02202C4908600320486066
:1032F0002A48C068002802DA05202849C860274803
:103300000069002806DA2548C068401E2349C860C5
:103310000920086121488069002802DA05201F4938
:1033200088611E48C069002806DA1C488069401E72
:103330001A4988610920C8611E480078D0B1174831
:103340000078154908701548007915490870134828
:10335000007B144908701148007C134908700F481D
:10336000007E124908700D48007F11490870002046
:10337000114908701148007810B100200E490870FA
:1033800010BD000046000020430000204500002042
:10339000000000204B0000207B000020F4000020F3
:1033A0007C0000207E0000207F00002081000020A3
:1033B000820000204C0000204A0000204D00002028
:1033C00010B4C26822F0010222F48072C2600A0EB8
:1033D0000260114A1268114B02EA030CACF18054EE
:1033E000CBB2C1F30722B4F5202407D043F4007117
:1033F000416042F40071816010BC70474FF4704C22
:103400000CEA1114234343F4007343600CEA1121C6
:10341000114341F40071EEE700E00F400000FF703F
:10342000C26840F2011319401143C1607047416204
:1034300070478269114381617047002914BF006A97
:10344000C069704711F0FF0F18BF826211F47F4FFF
:1034500018BFC262704730B50021002207E0435C0C
:10346000202B03D0455C1346521CC554491C435CB9
:10347000002BF4D1835430BD70B50121184800F001
:1034800087F804462146164800F07CF821E01448ED
:1034900000F02EF80546FCF7B9FF1249124A1278DF
:1034A0008854084610490978405C0A2805D00E481F
:1034B0000078401C0C4908700BE0002109480A4ABA
:1034C00012788154012009490870002006490870CB
:1034D00004E0034800F01AF80028D8D100BF70BDFE
:1034E00000C00040140100204700002042000020DE
:1034F000816911F0100F0CBF00684FF0FF3070476A
:10350000826912F0200FFBD10160704780690121B0
:1035100021EA10107047D0F818C01CF0080FFAD13B
:10352000D0F82CC02CF0100CC0F82CC0D0F830C053
:103530002CF0010C2CF4407CC0F830C0D0F830C026
:10354000B1EB021F34BF4CF0200C2CF0200CC0F863
:1035500030C038BF5208C900B1FBF2F1491C49081C
:103560008A09426201F03F018162C36200218161E8
:10357000C16A41F01001C162016B40F20132114396
:103580000163704741647047826B114381637047E8
:10359000002914BF006CC06B7047000010B50446D2
:1035A00004E014F8011B0348FFF7AAFF2078002865
:1035B000F7D110BD00C0004070B50026D448FFF719
:1035C0004AFFD448007800281BD000240FE00025D3
:1035D0000AE0D148415DCE4A601C105C814202D1B4
:1035E000CE498D55761C6D1C0A2DF2DB641CFF2C18
:1035F000EDD90522CAA1C648FCF717FF10B9FEF79E
:10360000D5FE83E10322C9A1C148FCF70EFF0028C3
:103610007CD10722C6A1BE48FCF707FFD8B9BF4836
:103620000078C5490870BD484078C4490870BB4857
:103630008078C3490870B948C078C2490870B74853
:103640000079C1490870B5484079C0490870C0A0E8
:10365000FFF7A4FF62E00722C1A1AD48FCF7E5FE39
:10366000D8B9AE488078C0490870AC48C078BF4926
:103670000870AA480079BE490870A8484079BD4939
:103680000870A6488079BC490870A448C079BB4935
:103690000870BBA0FFF782FF40E00822BCA19C4855
:1036A000FCF7C3FED8B99D480078BC4908709B4818
:1036B0004078BB49087099488078BA4908709748A3
:1036C000C078B949087095480079B849087093489E
:1036D0004079B7490870B7A0FFF760FF1EE00A22E3
:1036E000B9A18B48FCF7A1FEA8B98C480078B9496C
:1036F00008608A484078B849086088488078B749A7
:1037000008608648C078B649086000E00AE0B5A0C5
:10371000FFF744FF02E0B8A0FFF740FF00207D491B
:103720000870F3E00322BFA17948FCF77EFE002871
:1037300077D10722BCA17648FCF777FE18BB7E48FC
:1037400000783030BA4908707C48007830304870D2
:103750003A2088707A4800783030C870794800780C
:10376000303008713A2048717748007830308871DD
:10377000764800783030C871AEA0FFF70FFFAC4834
:10378000FFF70CFF58E00722AEA16148FCF74DFEA1
:1037900018BB754800783030A54908707348007828
:1037A000303048702D208870714800783030C870F3
:1037B00070480078303008712D2048716E480078CC
:1037C000303088716D4800783030C8719FA0FFF7A5
:1037D000E5FE9748FFF7E2FE2EE008229FA14C4845
:1037E000FCF723FE28BB6D48007830309049087004
:1037F0006B480078303048703A208870694800780B
:103800003030C87068480078303008713A2048710C
:103810006648007830308871654800783030C8716B
:1038200000E00DE090A0FFF7B9FE8148FFF7B6FE7B
:1038300002E093A0FFF7B2FE00203649087065E071
:1038400009229AA13248FCF7F0FD48B901209A49B3
:10385000087000202F49087098A0FFF79FFE55E0E0
:103860000A229AA12A48FCF7E0FD40B900209249BB
:1038700008702849087098A0FFF790FE46E00522DE
:1038800099A12348FCF7D1FD40B900209849087060
:103890002049087097A0FFF781FE37E01C480078A8
:1038A0003F282DD197A0FFF779FE9DA0FFF776FE68
:1038B0009FA0FFF773FEAAA0FFF770FEACA0FFF772
:1038C0006DFEB6A0FFF76AFEC0A0FFF767FECBA0B3
:1038D000FFF764FECFA0FFF761FED4A0FFF75EFE06
:1038E000D7A0FFF75BFEDCA0FFF758FEE0A0FFF7D4
:1038F00055FEE7A0FFF752FE00200649087005E0DC
:103900005FA0FFF74BFE00200249087070BD000069
:10391000140100204200002004000020320000209A
:10392000494E4954434C4F434B000000534554000B
:1039300053455454494D45007B0000207C00002035
:103940007E0000207F0000208100002082000020F7
:103950000AC9E8D6C3CAB1BCE4B3C9B9A60A000013
:103960005345544441544500720000207300002028
:1039700075000020760000207800002079000020EB
:103980000AC9E8D6C3C8D5C6DAB3C9B9A60A0000C1
:10399000534554414C41524D000000008600002028
:1039A0008700002088000020890000208A00002075
:1039B0008B0000200AC9E8D6C3C4D6D6D3CAB1BC8E
:1039C000E4B3C9B9A60A00005345545354574154AF
:1039D000434800008C00002090000020940000204C
:1039E000980000200AC9E8D6C3B5B9BCC6CAB1B3AD
:1039F000C9B9A60A000000000ACAE4C8EBC3FCC1AA
:103A0000EED3D0CEF3A3A1C7EBCAE4C8EBA1B03F7D
:103A1000A1B1C0B4B2E9BFB4CBF9D3D0C3FCC1EEFD
:103A20000A0000004745540047455454494D45009D
:103A30003A0000200AB5B1C7B0CAB1BCE4CEAAA30F
:103A4000BA0A000047455444415445000AB5B1C77D
:103A5000B0C8D5C6DACEAAA3BA0A00004745544179
:103A60004C41524D000000000AC9E8B6A8B5C4C4D4
:103A7000D6D6D3CAB1BCE4CEAAA3BA0A00000000CD
:103A8000CAE4C8EBC3FCC1EED3D0CEF3A3A1C7EB0D
:103A9000CAE4C8EBA1B03FA1B1C0B4B2E9BFB4CB96
:103AA000F9D3D0C3FCC1EE0A000000004F50454ED0
:103AB000414C41524D000000540000200AC4D6D6AB
:103AC000D3D2D1BFAAC6F40A00000000434C4F5322
:103AD00045414C41524D00000AC4D6D6D3D2D1B98B
:103AE000D8B1D50A000000005041555345000000F0
:103AF0004E0000200AB5B9BCC6CAB1D4DDCDA30AB8
:103B000000000000B1BECAFDD7D6D6D3BFC9CAB91E
:103B1000D3C3C3FCC1EEC8E7CFC2A3BA0A000000FA
:103B2000312ED6D8C6F4C3FCC1EEA3BA0A000000F9
:103B3000494E4954434C4F434B090909C8EDD6D867
:103B4000C6F4CAFDD7D6D6D3A3ACB1A3C1F4B5B1E0
:103B5000C7B0CAB1BCE4C8D5C6DA0A0A0000000082
:103B6000322EC9E8D6C3C3FCC1EEA3BA0A000000D6
:103B70005345542054494D452058583A59593A5ABA
:103B80005A09C9E8D6C3CAB1BCE4CEAA5858CAB1CA
:103B90005959B7D65A5AC3EB0A000000534554206E
:103BA0004441544520585858582D59592D5A5A09AE
:103BB000C9E8D6C3C8D5C6DACEAA58585858C4EAF8
:103BC0005959D4C25A5AC8D50A0000005345542046
:103BD000414C41524D2058583A59593A5A5A09C9FC
:103BE000E8D6C3C4D6D6D3CAB1BCE4CEAA5858CA04
:103BF000B15959B7D65A5AC3EB0A00004F50454E37
:103C0000414C41524D0909B4F2BFAAC4D6D6D30AD9
:103C100000000000434C4F5345414C41524D0909AF
:103C2000B9D8B1D5C4D6D6D30A0A0000332EBBF119
:103C3000C8A1D7B4CCACC3FCC1EEA3BA0A00000043
:103C40004745542054494D450909BBF1C8A1B5B1B8
:103C5000C7B0CAB1BCE40A004745542044415445AA
:103C60000909BBF1C8A1B5B1C7B0C8D5C6DA0A0009
:103C700047455420414C41524D0909BBF1C8A1B5FB
:103C8000B1C7B0C4D6D6D3CAB1BCE40A0A0000009A
:103C9000D7A2A3BAD2D4C9CFC3FCC1EEBEF9B2BB7E
:103CA000C7F8B7D6B4F3D0A1D0B4C7D2D3D0BFD55C
:103CB000B8F1C8DDB4EDB9A6C4DCA1A300000000D2
:103CC00003B401984100009850EAC12018BF0420B5
:103CD0004A0D18BF40F0010040F2FF72B2EB515F95
:103CE00008BF40F00200012808BF052002B070475D
:103CF0002DE9F04D2DED040B2DED0E8B96B0DDE989
:103D00002550279CDDF890A025F0004624F00048BF
:103D1000BAF1000F14BF0121002101EB4502FC495B
:103D200053184A1093422AD3002814BF01230023BA
:103D300003EB44030B44F7498B4220D358EA0001BC
:103D40009FEDF59B76D0DFF8D8B35D4503D1BAF18E
:103D5000000F05D188E0BAF1000F08BF002100D0A4
:103D6000012101EB450111F5001F08D8002814BFFF
:103D70000121002101EB440111F5001F0BD99DED3C
:103D8000261B9DED240B16B0BDEC0E8B04B0BDE8D8
:103D9000F04D00F069BE0027002DBCBFE149884509
:103DA00021DAE1498845A8BF02271CDAC3451ADC9D
:103DB000DE4901EB2851142908DDC1F1340220FA53
:103DC00002F101FA02F282420DD108E058B9C1F1C4
:103DD000140228FA02F101FA02F2424503D101F07D
:103DE0000101C1F1020756EA0A0124D1002C22DAAE
:103DF000002D18BF022F01D0012F0AD00220FCF79E
:103E000070FB16B0BDEC0E8B04B0BDE8F04D00F0B9
:103E100013BE0220FCF765FB00F00EFE51EC100B08
:103E200000F0FAFF41EC100B16B0BDEC0E8B04B0A5
:103E3000BDE8F08D18E09FEDBEAB9FEDBF8B002875
:103E400071D1B848804522D105F1804010F580102D
:103E500008BFBAF1000F07D0B3450ADC002CA8BF99
:103E60009DED260BE0DA0DE0B0EE490AF0EE690AAE
:103E7000DAE7002C06DA9DED260B51EC100B00F072
:103E8000CBFF6FE0AE48784490ED000BCCE7D8450F
:103E90004DD1002C48DA2EB186423AD1BAF1000F4A
:103EA00042D126E0BAF1000F13D00220FCF719FB33
:103EB00000F0F6FD8DED020B9DED240B8DED000B5A
:103EC00010EE900A039961F31E0003909DED020B22
:103ED000AAE78DED02AB9DED240B1AEE901A10EEC1
:103EE000900A8DED000B61F31E0003909DED020B17
:103EF0009AE78DED028B9DED240B18EE901A10EED3
:103F0000900A8DED000B61F31E0003909DED020BF6
:103F10008AE709DA9DED240B51EC190B53EC102BB9
:103F200001F042F81EE020E09DED240B7CE7864284
:103F30001BDAB4F1804F0DD0A4F10050B0F1FF5066
:103F400013D1002D11DB9DED240B51EC100B00F073
:103F500015FF07E09DED240B53EC102B51EC100BDB
:103F600000F0C2BC41EC100B5EE79DED240B51EC60
:103F7000100B00F0B5FDBAF1000FCDE90E0142D1F2
:103F80009FED710B46B3A6F1E040B0F17F600CD01D
:103F90005E4538D1002D00DAA7B3022F0CBF0120F7
:103FA0004FF0FF3001F085F9DCE7002D01DD002C3A
:103FB0000DDA002D01DD002C1FDB002D16DA002CA0
:103FC00014DB012F08BF9FED620B3FF42DAFB0EE65
:103FD0004A0AF0EE6A0A27E7022F18BF002D0CD01C
:103FE000012F0AD1002DFFF61FAF06E0002DB8BF4C
:103FF000002C08DA012F3FF417AFB0EE480AF0EEBC
:10400000680A11E71BE0012000EBE57050EA0701A8
:1040100015D0791EB0EE498AF0EE698A084308BFD0
:104020009FED4D8B4E480025804570DD4D494E4833
:10403000884514DDB0420DDB002C19DB2FE0012098
:10404000FCF74FFA16B0BDEC0E8B04B0BDE8F04D96
:1040500000F016BDB34502DC002C09DC1FE08642EF
:1040600002DA002C1BDA03E05E452BDD002C16DDA6
:104070000220FCF736FA00F013FD8DED020B53EC35
:104080001A2B51EC180B01F067F9CDE900010399E7
:10409000019861F31E0003909DED020BC4E602201F
:1040A000FCF71FFA00F00CFD10EE901A18EE900AC3
:1040B0008DED020B8DED008B61F31E0003909DEDE5
:1040C000020BB1E69DED0E0B53EC192B51EC100BCE
:1040D00001F04EFB9FED260BCDE9080153EC102BB0
:1040E0009DED080B51EC100B01F036F99FED221BF2
:1040F00053EC112B01F064FA9DED081B53EC112BCE
:1041000001F02AF99FED1E1B53EC112B3CE08CE0D3
:10411000FFFF1F00FFFF0F00000000000000F03F46
:104120000000F03F0000F07F0000404301FCFFFF73
:10413000000000000000F07F000000000000000010
:10414000C621000000000000000000000000008008
:10415000000000000000F0FF000000000000F0BFC1
:104160000000E0410000F043FFFFEF3F00000000CF
:10417000000000000000D03F555555555555D53F1E
:10418000000000000000E03F01F01AFA9DED080B6E
:1041900041EC1A0B53EC102B51EC100B01F0DCF836
:1041A00053EC1A2B01F0D8F841EC1A0B9FEDFE0BE3
:1041B00053EC102B9DED080B51EC100B01F0CCF8DB
:1041C00041EC1B0B9FEDFA0B51EC1A0B53EC102B2F
:1041D00001F0C2F841EC1A0B9FEDF70B53EC102BDA
:1041E0009DED080B51EC100B01F0B6F853EC1A2BB7
:1041F00001F0BEFA41EC1A0B51EC1B0B53EC1A2BDD
:1042000000F016FE0690CDE906519DED060B53EC2D
:104210001B2B51EC100B01F0ABFA53EC1A2B01F0F5
:10422000CFF941EC100B00F0A1B90020B6F5801FCA
:104230000EDA9FEDE30B53EC102B9DED0E0B51ECC2
:10424000100B01F089F8CDE90E016FF034000E4635
:1042500000EB2650A0F2FF37C6F31300DA4940F016
:104260007F6646F040568842D8BF002408DDD74913
:104270008142C8BF012403DC0024A6F580167F1C00
:10428000D348784400EBC4000F9690ED00CB9DED31
:104290000E0B53EC1C2B51EC100B01F069FA9DED49
:1042A0000E0B41EC1B0B53EC1C2B51EC100B00F0D4
:1042B000BFFD41EC100B51EC190B53EC102B00F02F
:1042C00073FE41EC1D0B51EC1B0B53EC1D2B01F04D
:1042D00043F841EC1A0BBF488DED10AB78441095B4
:1042E00090ED000B4FF0005040EA660000EB844078
:1042F0008DED080B00F5002009909DED080B53ECA7
:104300001C2B51EC100B01F033FA9DED0E1B53ECFE
:10431000112B01F055F941EC100B53EC102B9DEDD6
:10432000100B51EC100B01F017F89DED080B41EC50
:104330001C0B53EC102B9DED100B51EC100B01F0EE
:104340000BF853EC1B2B01F03BF953EC1C2B01F049
:104350000FFA53EC1D2B00F0FFFF41EC1C0B53EC4C
:104360001A2B51EC1A0B00F0F7FF41EC1B0B9A488B
:104370000621B0EE4B0AF0EE6B0A784400F0E0FA4A
:10438000B0EE401AF0EE601AB0EE41DAF0EE61DA0B
:1043900053EC1B2B51EC1B0B00F0DEFF53EC1D2BE1
:1043A00000F0DAFF9DED100B41EC1B0B53EC1A2BC8
:1043B00051EC100B00F03CFD53EC1C2B00F0CCFF3B
:1043C00053EC1B2B00F034FD9DED100B41EC1B0B4F
:1043D00053EC102B51EC100B00F0BEFF41EC1D0B09
:1043E0009FED7FEB53EC1E2B00F022FD53EC1B2BBB
:1043F00000F01EFD0890CDE908519DED080B53EC2F
:104400001E2B51EC100B01F0B3F953EC1D2B01F0F6
:10441000AFF953EC1B2B01F0D3F89DED080B41ECE9
:104420001D0B53EC102B9DED100B51EC100B00F0FD
:1044300093FF41EC1B0B53EC1A2B51EC1D0B00F0BE
:104440008BFF9DED080B41EC1A0B53EC102B51EC3C
:104450001C0B00F081FF53EC1A2B00F0E9FC41EC3F
:104460001A0B51EC1B0B53EC1A2B00F0E1FC0C90D7
:10447000CDE90C519DED0C0B53EC1B2B51EC100BAB
:1044800001F076F953EC1A2B01F09AF841EC1B0B72
:104490009FED550B53EC102B9DED0C0B51EC100BBD
:1044A00000F05AFF41EC1A0B9FED510B51EC1B0B26
:1044B00053EC102B00F050FF41EC1B0B9FED4E0B0B
:1044C00053EC102B9DED0C0B51EC100B00F044FF46
:1044D00053EC1B2B00F0ACFC41EC100B484878442B
:1044E00000EBC40090ED001B51EC100B53EC112BB2
:1044F00000F09EFC41EC1B0B384600F0DAFECDE9E3
:10450000080153EC1B2B51EC1A0B00F091FC41EC11
:10451000100B3C48784400EBC40090ED00CB51EC0C
:10452000100B53EC1C2B00F083FC9DED081B53EC8F
:10453000112B00F07DFC0690CDE906519DED080B96
:1045400053EC102B9DED060B51EC100B01F010F904
:1045500053EC1C2B01F00CF953EC1A2B01F008F969
:1045600053EC1B2B01F02CF841EC100B9DED261B9E
:1045700053EC102B8DED001B00959DED260B51EC9F
:10458000100B00F0E9FE9DED000B41EC1A0B53EC13
:10459000102B9DED260B51EC100B01F0E9F89DED71
:1045A000061B53EC112B2FE0000000604715F73F6E
:1045B000FE822B654715F73F44DF5DF80BAE543E96
:1045C00000000000000040438E9803007AB60B0004
:1045D000421D0000701D00007A1C00000000000059
:1045E0000000000000000840000000E009C7EE3FA6
:1045F000FD033ADC09C7EE3FF5015B14E02F3EBE38
:10460000061B0000C01A000000F0A6FE53EC1A2B97
:1046100000F00EFC9DED060B41EC1A0B53EC102B39
:104620009DED000B51EC100B00F096FECDE90C0156
:104630009DED0C0B51EC1A0B53EC102B00F0F8FB1A
:10464000CDE902010C46AA498C422FDB611A0843CE
:1046500018D19DED0C0B53EC102B9DED020B51EC82
:10466000100B01F085F841EC1B0B9FEDA30B51ECF7
:104670001A0B53EC102B00F0DBFB53EC1B2B00F060
:1046800069FF2DD20220FBF72CFF00F009FA10EE93
:10469000901A18EE900A8DED020B8DED008B61F3F0
:1046A0001E0003909DED020BFFF7BEBB944A24F061
:1046B0000041914214D39349214408437FF4EFAC65
:1046C0009DED0C0B53EC102B9DED020B51EC100BE0
:1046D00001F04EF853EC1A2B00F03CFF7FF6DFACF4
:1046E00024F000408849894A002601EB205182428B
:1046F0002BDA481C4FF4801121FA00F02044844A40
:10470000C0F30A517A44A1F2FF3192ED000B814AC5
:104710008DED080BCA4020EA0202C0F3130040F4FA
:104720008010C1F1140120FA01F60992002CB8BFE3
:1047300076429DED080B53EC102B9DED0C0B51ECCC
:10474000100B01F015F8CDE90C019DED0C0B51ECAF
:104750001A0B53EC102B00F06BFB9FED6F0B0890C6
:10476000CDE9085153EC102B9DED080B51EC100BCB
:1047700000F0F2FD41EC1B0B9FED690B53EC102B8D
:104780009DED080B51EC100B00F0E6FD9DED0C0BC0
:1047900041EC1C0B53EC102B9DED080B51EC100B56
:1047A00000F0E6FF53EC1A2B00F00AFF9FED5E1BB2
:1047B00053EC112B00F0D0FD53EC1C2B00F038FB18
:1047C00041EC1A0B51EC1B0B53EC1A2B00F030FB95
:1047D000CDE902019DED020B53EC1B2B51EC100BAC
:1047E00000F0C6FF53EC1A2B00F0EAFE9DED020B21
:1047F00041EC1A0B53EC102B51EC100B00F0ACFDFC
:10480000CDE908014A489DED080B0521784400F0E8
:1048100097F89DED081B51EC100B53EC112B00F099
:104820009BFD9DED021B53EC112B00F0C9FECDE961
:1048300006019DED020B53EC1A2B51EC100B00F00E
:104840008BFD53EC1A2B00F0F3FA9FED3B0B41EC80
:104850001A0B53EC102B9DED060B51EC100B00F0D6
:1048600087FF9DED060B41EC1B0B53EC102B9DEDD0
:10487000020B51EC100B00F06FFD53EC1B2B00F002
:1048800093FB53EC1A2B00F073FF9DED021B53ECCE
:10489000112B00F06DFF53EC192B00F091FECDE9C8
:1048A000020101EB065001150029C8BF039015DC79
:1048B0009DED020B324651EC100B01F07AF8FFF738
:1048C000FFF9042808BF00F0FBF832469DED020B0B
:1048D00051EC100B01F06DF8CDE902019DED020BDA
:1048E00051EC180B53EC102B00F036FDFFF73ABBE0
:1048F0000000904000000000FE822B654715973CA9
:1049000000CC904000346F3F01FCFFFF0000E03F0F
:1049100048190000FFFF0F0000000000432EE63F93
:10492000396CA80C615C20BEEF39FAFE422EE63FDE
:104930001818000000000000000000000000004007
:1049400070B504462DED028B4D1E00EBC500B0EE98
:10495000408AF0EE608A90ED000B35F0060017D02B
:1049600053EC182B51EC100B00F0F6FC41EC100B43
:104970006D1E04EBC50090ED001B51EC100B53ECC9
:10498000112B00F055FA41EC100B35F00600E7D181
:10499000022D36D0042D1CD0062D1CBFBDEC028B81
:1049A00070BD53EC182B51EC100B00F0D5FC94EDBE
:1049B0000A1B53EC112B00F03BFA53EC182B00F0C0
:1049C000CBFC94ED081B53EC112B00F031FA41ECB9
:1049D000100B53EC182B51EC100B00F0BDFC94EDB8
:1049E000061B53EC112B00F023FA53EC182B00F0AC
:1049F000B3FC94ED040B53EC102B00F019FA41ECCE
:104A0000100B53EC182B51EC100B00F0A5FC94ED9F
:104A1000021B53EC112B00F00BFA53EC182B00F097
:104A20009BFC94ED001B53EC112B00F001FABDEC44
:104A3000028B41EC100B70BD9FED070B10B553ECD2
:104A4000102B9FED070B51EC100B00F0ADFA41EC71
:104A5000100B10BD0000000000000000000000006E
:104A6000000000000000F03F10B553EC112B51EC9A
:104A7000100B00F0DDF941EC100B10BD0000000040
:104A80009FED050B10B553EC102B51EC100B00F003
:104A90008BFA41EC100B10BD00000000000000007C
:104AA0009FED050B10B553EC102B51EC100B00F0E3
:104AB00053FC41EC100B10BD000000000000007022
:104AC0009FED050B10B553EC102B51EC100B00F0C3
:104AD00043FC41EC100B10BD000000000000001072
:104AE00082B0CDE9000121F0004001909DED000B66
:104AF00002B051EC100B70477B497C48FDF702FE79
:104B00007B4908607B48FDF76FFF00BF7948FDF7E0
:104B10007FFF0028FAD0FCF745FD7749086008467A
:104B2000006808B100BFFEE7402211017348FCF79E
:104B30000DFE7248006B012842D170480078704920
:104B400008706E4800796F4908706C48007A6E49A9
:104B500008706A48007B6D4908706848007C6C49A1
:104B600008706648007D6B4908706448007E6A4999
:104B700008706248007F69490870604890F820001A
:104B8000674908705D4890F82400664908705B48E2
:104B900090F8280064490870584890F82C00634940
:104BA0000870002404E00020614941F82400641CDE
:104BB0000D2CF8DB402211015D48FCF715FD21E0CA
:104BC00002204F49087004204E49087000204E49C9
:104BD000087006204D49087001204D4908700620D4
:104BE0004C49087001204C49087002204B4908705C
:104BF00000204B4908704B4908704B49087046200B
:104C00004A490870FDF774FCFDF7B2FCFDF74AFD58
:104C1000FDF7FAFCFDF728FD01214648FEF709FCE7
:104C20002320FCF7A3FFFDF737FF50214248FEF792
:104C3000ABFC1520FCF79AFFFCF7CAFF3FA0FEF77C
:104C4000ADFC50E04648007808B9FCF7C9FF45487C
:104C5000007808B1FDF70AFCFEF7AEFC404800788A
:104C600010B1FCF727F93EE03F480078012806D054
:104C700002280DD0032814D0042830D11AE03B4874
:104C8000007810B1FEF786FA01E0FEF70BF929E093
:104C90003648007810B1FCF7E9FA01E0FCF774F946
:104CA00020E03248007810B1FBF7A0FF01E0FBF7ED
:104CB000A1FC17E02D48007810B1FDF7B7FA0DE020
:104CC000FDF762F92A48007810B1012029490870DF
:104CD0002948007810B100202649087002E0FEF74C
:104CE000E1F800BF00BFADE7002D3101500500F134
:104CF00058000020005800F05C0000205402002002
:104D00007200002073000020750000207600002053
:104D100078000020790000207B0000207C0000202B
:104D20007E0000207F000020810000208200002003
:104D3000140200200000034000C000400AC6F4B680
:104D4000AFB3C9B9A6A3ACCAE4C8EBA1B03FA1B147
:104D5000B2E9BFB4CBF9D3D0C3FCC1EEA1A30A0022
:104D60004800002054000020E40000204A000020F9
:104D70004C0000204E0000204D00002000B52DED1D
:104D8000048B83B041EC190B00F026FC41EC180BAE
:104D900018EE100A18EE901A8DED008B002818BF3F
:104DA0000120084320F00040C0F17F6000F1E040A6
:104DB000C00F14D019EE101A19EE900A8DED009B59
:104DC000002918BF0121084320F00040C0F17F6096
:104DD00000F1E040C00F04BF0120FBF782FB51EC63
:104DE000180B03B0BDEC048B00BD000010B500290A
:104DF0000AD00878002807D005487844FBF7B2FBB2
:104E0000002801D0002010BD0248784410BD0000E9
:104E1000C6120000BE12000081F00041704780F011
:104E20000040704721F00041704720F0004070477B
:104E300010B591EA030F48BF83F0004300F1A0844E
:104E4000841A71EB030C05D2121943EB0C03001BFF
:104E500061EB0C01DFF824E14FEA1154A4EB135C81
:104E60001EEA430F18BF9EEA445F73D023EA0E0385
:104E7000DCF1200E21EA045143F4801332D322FAEC
:104E80000CFE10EB0E0023FA0CFE41EB0E01CCF1F0
:104E9000200E03FA0EFE10EB0E0051F10001B1F5E9
:104EA000801FCCF1200E32D201EB045112FA0EF227
:104EB000BDE8104058BF7047401C38BF5FEA42024F
:104EC00018BF7047002814BF20F0010041F1000115
:104ED0004FEA410313F5001F38BF7047A1F1C041ED
:104EE00000F032BB012A43EB0302ACF1200CDCF1F1
:104EF0001F0E32BF4FF0000E23FA0CF310EB03002D
:104F000041EB0451B4EB115FD0D0A1EB045101F59A
:104F1000801149085FEA300001EB04510ED350F1D3
:104F2000000038BF12FA0EFE08D1BDE81040C9E7F4
:104F3000401C38BF5FEA4202CAD1C3E7BDE8104057
:104F40004FEA410313F5001F38BF7047A1F1C0417C
:104F500000F0FABA9EEA445F08D011EA5E0FBDE89D
:104F6000104004BF01F0004100207047BDE8104030
:104F700070B500F09BFA00BF64FBBE3E0000E0FF8E
:104F800002494FF0000000F0E2BC00BF0000F87FD3
:104F9000491058BFC1F140415B1058BFC3F14043B5
:104FA0008B42EFF3008070472DE9C04130B4DFF849
:104FB000A0C23CEA111418BF3CEA131400F0EC80C4
:104FC00081EA03051CEA111444EAD57418BF1CEAEF
:104FD000131500F0C780A4EB05044FF0004545EA27
:104FE000C12145EAC32341EA505143EA525304F137
:104FF0007F74994204F500344FEAC0204FEAC22280
:1050000008BF904200F09C804FEA13650FF24016F3
:10501000765D4FEA134506FB05F7C7F1807706FB7F
:1050200007F74FEAD737A7FB03687642C8F5803801
:10503000A7FB06CE38BFA8F1010807FB08E64FF032
:10504000000EA6FB028CE6FB03CEDCF1000CCEF1D9
:10505000004E38BFAEF1010EA6FB0C584FF0000712
:105060004FF00005E6FB0E87A1FB08C6A0FB07CEAC
:1050700016EB0E0645F10005E1FB076515F1E04E64
:105080007EBFA4F580345FEA46066D4116F18007C5
:1050900045F100054FEA17274FEA066647EA05671C
:1050A000A6F1DE46B6F1805F4FEA15251FD93846D6
:1050B00024F0010C05EBC471BCF1FE6F01EB0C1187
:1050C00002D8F0BCBDE8008124425CBF01F5801E1F
:1050D0009EEAC47F02D4F0BCBDE80081244238D4EB
:1050E000F0BCA1F1C041BDE8004100F02DBA4FEA8B
:1050F000D22242EA43524FEAD323A7FB02864FEA69
:10510000D02040EA415007FB03661EEA0E0F4FEA2B
:10511000D12105FB026658BFA6EB0056B6EB005640
:105120004FEA520E4EEAC37E18EB0E0E56EB530EAC
:10513000BDD518EB02085E417F1C55F10005B6E7AE
:105140004FF480154FF000074FF000064FF00008B5
:10515000ADE7F0BC4FF0000001F1C04101F00041AB
:10516000BDE8008111EA0C1F0CEA131500D00CE019
:1051700013EA0C1F00F025804FF00000F0BC81EA1C
:10518000030101F00041BDE80081F0BCBDE8004131
:1051900081EA030100F0D8B9F0BCBDE8004170B568
:1051A00000F084F9097EFC3E00F007B881EA0301B3
:1051B0004FF0000001F00041704781EA030100F068
:1051C000C3B9F0BCBDE800414FF000002149704771
:1051D000FFFDFBF9F7F5F4F2F0EEEDEBE9E8E6E4BC
:1051E000E3E1E0DEDDDBDAD8D7D5D4D3D1D0CFCD43
:1051F000CCCBCAC8C7C6C5C4C2C1C0BFBEBDBCBB7C
:10520000BAB9B8B7B6B5B4B3B2B1B0AFAEADACAB76
:10521000AAA9A8A8A7A6A5A4A3A3A2A1A09F9F9E50
:105220009D9C9C9B9A999998979796959594939302
:10523000929191908F8F8E8E8D8C8C8B8B8A898999
:10524000888887878685858484838382828181801C
:105250000000FF070000F87F4FEA1153A3F58063B9
:10526000D3F11E03A8BFD3F1200C08DB4FF000429E
:1052700042EAC12252EA505232FA03F07047094220
:105280000BD4102BC4BF0020704703F5787CBCF111
:10529000FF3F05D04FF0FF3070474FF000007047E0
:1052A00070B500F003F900BF4992248000207047D8
:1052B000F0E710F0004248BF4042B0FA80F310FA25
:1052C00003F10AD0C3F11D0303F580634FEA415097
:1052D00002EB035202EBD12170474FF00000704700
:1052E00051EA030C17D41CF5801F58BFBCF5801F72
:1052F00000F10680994218BF704708BF904270477E
:1053000007D711F5801F58BF13F5801F19D4994294
:105310007047894270471CF5801F08D5BCF5801F77
:10532000F7D58B4218BF704708BF824270474FF4D1
:10533000001C1CEB410F38BF1CEB430F01D28B420A
:10534000704770B500F0B2F8922449004FF0005158
:105350004FF08053FFF71CBEDFF848C170B51CEA60
:10536000111E1EBF1CEA13159EEA0C0F95EA0C0FC6
:1053700000F06F8081EA030423EA4C134EEAD47EE6
:1053800021EA4C1141F4801143F48013AE44A1FB97
:10539000024CA0FB0365AEF17F7E361955EB0C0580
:1053A000A1FB034C4CF10003A0FB021C16EB0C0606
:1053B000654153F10003094218BF46F0010613F49A
:1053C000007F0BD14FEA03314FEA0530340341EA45
:1053D000155140EA16506FF003020AE04FEAC3216C
:1053E0004FEAC520F40241EA555140EA56506FF0A9
:1053F000020202EB2E4201EB025585EACE710AD081
:105400005FEA440C18BF24F0004450F1000041F161
:10541000000120EAD47040F2FE7C624500D270BDEB
:10542000A84214BF4FF080444FF04044002E08BF04
:105430000024BEF1806FA8BFA1F1C041BDE870405B
:1054400080F282804FF0000001F1C04101F0004184
:1054500070479EEA0C0F0CEA131518BF95EA0C0F63
:1054600006D04FF0000081EA030E0EF0004170BD3F
:1054700000F01CF88900013E00F007B800F009B800
:105480004FEA430C5FEA5C5C08D081EA030100F05C
:105490005BB84FEA410C5FEA5C5CF6D14FF000006C
:1054A000014970470000FF070000F87F0EF1020E6F
:1054B0002EF0030E5EF8046B364205D4012A43EB4E
:1054C000030515F5001F12D8012841EB010C1CF54E
:1054D000001F0CD80ED14FEAD17C15F5001F0CEB44
:1054E0004C0C0CF1020C08BF4CEBD37C04E04FF0E9
:1054F000080C01E04FEAD37C0CEB4C0526FA05F6CC
:1055000006F00706B6F1040C06D20EEB860CBDE8D9
:1055100070404CF0010C6047DFE80CF0090B020210
:105520004FF000414FF00000A1F5002170BD194679
:105530001046012851EB010418BFD4F5001484BFB4
:10554000002001F0004170BD0808A0F500114FEAED
:105550003101704753EA010C17D41CF5801F58BF66
:10556000BCF5801F00F106808B4218BF704708BF52
:105570008242704707D713F5801F58BF11F5801F6F
:1055800019D48B4270479B4270471CF5801F08D589
:10559000BCF5801FF7D5994218BF704708BF9042ED
:1055A00070474FF4001C1CEB430F38BF1CEB410F3E
:1055B00001D2994270470FB40CBC03BCFFF7C1BEC7
:1055C00091EA030F10B581F000413FF539AC83F04B
:1055D000004300F0D5B800002DE9F04101F5801C32
:1055E000BCF5001FC0F2A9804FEA115C21EA0C5102
:1055F0000CF1FD0C41F480115FEA5C0C0CF5C07CF1
:1056000001D34000494130A4890241EA9051870208
:105610008E0E0A0CA45D04FB04F602FB06F6C6F12E
:105620004046A4FB0662F60D46EA422606FB06F457
:10563000A4FB01235242C3F1404338BF5B1EA6FBCB
:1056400002420024E6FB0324D20B42EA4446A6FBB6
:105650000623A1FB02E2A3FB07E4E3FB61426442F1
:10566000C2F1404E38BFAEF1010EA6FB04234FF04D
:105670000002E6FB0E32A2FB03463400E2FB62644A
:10568000A1FB06E6A4FB07E8E4FB61687642C8F1EB
:10569000405838BFA8F10108A2FB06E4A3FB08E5C7
:1056A000E2FB6854A1FB05E6A7FB04E8E1FB648686
:1056B00018F1200556F10006A809A8F11B08B10948
:1056C00008F03F08B8F10A0F40EA86601CD901EBE8
:1056D0000C51BDE8F08100BFFCF5EEE8E2DDD8D367
:1056E000CFCBC7C3C0BDB9B6B4B1AEACA9A7A5A353
:1056F000A19F9D9B9A9896959392908F8D8C8B8964
:105700008887868584838281A0FB006800FB01F284
:1057100008EB4208B8EB872807D5341858EB01048A
:10572000D5D5401C51F10001D1E7341A78EB0104C2
:10573000CDD4401E71F10001C9E75FEA4C0C5FEA6D
:105740009C5C0DD105D34FF0000001F00041BDE895
:10575000F081BDE8F04170B5FFF7A8FE6DDBFFBE3C
:10576000BDE8F0414FF00000004970470000F87FAD
:1057700010B591EA030F48BF83F000433FF560ABDB
:10578000841A71EB030C07D212198CF0004C43EB16
:105790000C03001B61EB0C01DFF8A4E14FEA11548C
:1057A000A4EB135C1EEA430F18BF9EEA445F00F0AF
:1057B000B08023EA6E03524221EA0451C3EB6E0328
:1057C00038BF5B1EDCF1200E25D322FA0CFE10EB55
:1057D0000E0043FA0CFE41EB0E01CCF1200E03FA51
:1057E0000EFE10EB0E0051F10001CCF1200E29D479
:1057F00012FA0EF201EB0451BDE8104058BF704799
:10580000401C1CBFB2F1004F704700280CBF491C60
:1058100020F00100704712EB020E43EB030218BFA9
:105820004FF0010E4EEA4202ACF1200CDCF11E0EEC
:1058300054D943FA0CFE10EB0E0051F1FF31CCF1BC
:105840001E0ED5D50EF1010E12FA0EFE404141EBAF
:10585000010101EB445C5FEA5C5C10D910EBDE7087
:1058600001EB045138BFBEF1004FBDE8104018BF36
:10587000704700280CBF491C20F00100704730D24F
:105880004FEAD42C11F5001124F400641BD0B1FAB6
:1058900081F20B3AA41AA41ED2F12003914030FAEF
:1058A00003F31943904001EBCC71002C01EB045140
:1058B000BDE81040A8BF704701F1C0414FF00000A3
:1058C00001F000417047B0FA80F310FA03F100D103
:1058D00010BDE41A173C4805C90AE4E701EB04517E
:1058E00010BD491001EB0451BDE810404FEA3000F3
:1058F00002E04FF0000170474A0008BF0042F8D0B4
:10590000B2F5001F28BF704701F000414FF00000C2
:1059100070479EEA445F07D011EA5E0FBDE8104071
:1059200004BF002100207047BDE8104070B5FFF7AC
:10593000BDFD00BF40DFF63E83F0004110467047DA
:105940000000E0FF4FF04070E1EE100A70470CF0ED
:105950000F03092B08BF082000F059800A2B0BD039
:10596000082B18BF704708BF1CF0400F0AD04FF03B
:1059700000004FF0000170471CF0400F18BF4FF0BF
:10598000004070471CF0100F08D020F0704300F06A
:105990007F4242EAD3014FEA4370704700F0604013
:1059A00021F07F4242EA000201F07F4040EA72703B
:1059B00070474FF0FF0C4CF4E06C1CEA11531CBF15
:1059C0009CEA030C9445C2BFDA4201EB02517047D6
:1059D000002B0DD0BCF1000F0FD0002A01F00041C8
:1059E000A4BF41F0E04141F07F614FF000007047FB
:1059F00001F000414FF00000704750EA01334FF0D2
:105A00009B0C18BF4CF0806C7FF4BAAA70471CF452
:105A1000801F11D01CF4E02F03D06FEACC31490075
:105A200070474FF04050EFF3008222F0704242EA9C
:105A3000000282F3008870474FF0000070470000BA
:105A400000400040100000000080054010000000F1
:105A500000500040110000000090054011000000BF
:105A6000006000401200000000A00540120000008D
:105A7000007000401300000000B00540130000005B
:105A8000004002401400000000C005401400000067
:105A9000005002402E00000000D005402E00000003
:105AA000006002402F00000000E005402F000000D1
:105AB000007002403000000000F00540300000009F
:105AC00000D00340460000000000064046000000F1
:105AD000001006404700000000200640480000007B
